:100000000C940E1D0C9489260C94BA260C94EB26A5
:100010000C941C270C944D270C947E270C94AF272E
:100020000C94E0270C943B1D0C943B1D0C943B1D41
:100030000C943B1D0D9477010C943B1D0C943B1DBF
:100040000C943B1D0C9414D60C943B1D0C943B1D3E
:100050000C943B1D0C943B1D0C94DBDE0C94A823EC
:100060000C943B1D0C94B6AA0C943B1D0C943B1DA8
:100070000C943B1D0C943B1D0C943B1D0C943B1DA0
:100080000C943B1D0C943B1D0C943B1D0C943B1D90
:100090000C943B1D0C943B1D0C943B1D0C948B311C
:1000A0000C943B1D0C943B1D0C943B1D0C943B1D70
:1000B0000C943B1D0C943B1D0C943B1D0C943B1D60
:1000C0000C943B1D0C943B1D0C943B1D0C943B1D50
:1000D0000C943B1D0C943B1D0C943B1D0C943B1D40
:1000E0000C943B1D44FF52FF59FF60FF67FF6EFFFA
:1000F00041FF75FF7CFF84FF41FF8CFF96FFA1FF4E
:10010000ACFFB7FFC2FF41FFCDFFD8FFE5FF41FFC6
:10011000F2FF0000000000000000000000000000EE
:1001200000000000000000000000000000000000CF
:10013000000041FF41FF41FF41FF41FF41FF41FFFF
:1001400041FF41FF41FF41FF41FF41FF41FF41FFAF
:1001500041FF41FF41FF41FF41FF41FF41FF41FF9F
:1001600041FF41FF41FF41FF41FF41FF41FF41FF8F
:1001700041FF41FF41FF41FF41FF41FF41FF41FF7F
:1001800041FF41FF41FF41FF41FF41FF41FF41FF6F
:1001900041FF41FF41FF41FF41FF41FF41FF41FF5F
:1001A00041FF41FF41FF41FF41FF41FF00000000CF
:1001B000084AD73B3BCE016E84BCBFFDC12F3D6CCE
:1001C00074319ABD56833DDA3D00C77F11BED9E434
:1001D000BB4C3E916BAAAABE000000803F05A84C14
:1001E000CDB2D44EB93836A9020C50B991868808E0
:1001F0003CA6AAAA2ABE000000803F0000210024DD
:100200000027002A002D0030003300010100000407
:100210000107010A0100002200250028002B002E02
:10022000003100340002010000050108010B01004B
:100230000020002300260029002C002F003200009F
:100240000100000301060109010505050507050870
:10025000080808020202020A0A0808040404040149
:10026000010101010101010303030303030303046B
:100270000707070C0C0C0C0C0C0C0C0202020206FB
:10028000060606060606060B0B0B0B0B0B0B0B01EB
:100290000210202008081020401020408002010297
:1002A000010804020101020408102040808040205F
:1002B000100804020180040201804020100804029A
:1002C0000108040201010204081020408001020418
:1002D00008102040800000090A02080B0C0D0706D8
:1002E0000304010000000000000000000000000006
:1002F00000000000000000000000000000000000FE
:100300000011100F000000000000000000000000BD
:1003100000000000000000000000004D41494E5464
:10032000454E414E4345004D4154455249414C00D4
:100330005052494E54005072696E74696E6720774E
:10034000697468205553422E2E2E00756C74696DA9
:10035000616B65722E636F6D2F4552303700476FAA
:1003600020746F3A0058206F722059207377697497
:10037000636820737475636B00756C74696D616B71
:1003800065722E636F6D2F4552303700476F2074B2
:100390006F3A0058206F7220592073776974636830
:1003A0002062726F6B656E00756C74696D616B6550
:1003B000722E636F6D2F4552303600476F20746F79
:1003C0003A005A2073776974636820737475636B9D
:1003D00000756C74696D616B65722E636F6D2F456E
:1003E00052303500476F20746F3A005A2073776996
:1003F0007463682062726F6B656E00756C74696DF2
:10040000616B65722E636F6D2F4552303400476FFC
:1004100020746F3A00536166657479206369726372
:1004200075697400756C74696D616B65722E636FAC
:100430006D2F4552303300476F20746F3A00486586
:1004400061746572206572726F7200756C74696D8B
:10045000616B65722E636F6D2F4552303200476FAE
:1004600020746F3A0054656D702073656E736F72FF
:100470002042454400756C74696D616B65722E6332
:100480006F6D2F4552303100476F20746F3A005422
:10049000656D702073656E736F72004552524F52D6
:1004A000202D2053544F50504544006563686F3AE7
:1004B00000496E76616C6964206D61746572696172
:1004C0006C2073657474696E677320666F756E64F3
:1004D0002C20726573657474696E6720746F206474
:1004E000656661756C747300801506060606FEFE6F
:1004F000FEFEFC00000000000000FCFEFEFEFC0012
:1005000000000EFEFEFEFE0000E0FCFEFEFCE0E051
:10051000000000CECECE000000C0C0C0C0C0C08071
:1005200000000000000080C0C0800000000000004B
:100530008080C0C0C0C0C0C0C08080000000000675
:10054000FEFEFEFE0000000080C0C0C000000000F3
:1005500000008080C0C0C080808000000000C0C05B
:10056000C0C00080C0C0C0C08000000000007FFF8D
:10057000FFFFFF80000000000080FFFFFFFFFF0083
:10058000000000FFFFFFFF000000FFFFFFFF000073
:10059000000000FFFFFF00000081F1FFFF3F0F3F61
:1005A000FFFCF0F0FCFF3F0F3FFFFEF88000000073
:1005B000C1E1F1F17131010183FFFFFFFC00000097
:1005C000FFFFFFFF000C3EFFFFF7C301000000FC30
:1005D000FEFF8703113131333F3F3F1E000001FF13
:1005E000FFFFFF07030101010100000000000001FF
:1005F0000307070F0F0F0F0F0F0F0707070F0F0648
:10060000000000070F0F07000000070F0F07000092
:100610000000000F0F0F0000060F0F070100000081
:1006200001070F0F070100000001070F0F06000070
:1006300003070F0F0E0E060703070F0F070000003A
:10064000070F0F0700000000030F0F0F0600000048
:100650000307070F0E0E0E0E0E0E06000000000F11
:100660000F0F0F000000000000008015090909F9B4
:100670000101010103FE0000000000FE0301010171
:1006800003FE001FF101010101FFF01E0301010340
:100690001E10F000FF313131FF00E020202020202B
:1006A0002060C080000080C060202060C00000008A
:1006B00000C04060202020202020206040C080001A
:1006C0000FF901010101FF0080C060202020E0003F
:1006D000000080C04060202020604040C08000E0DA
:1006E00020202020E0602020202060C0000000FFAB
:1006F00080000000007FC0808080C07F000000007C
:1007000000FF0000FF00000000FF01FF00000000EC
:10071000FF010100FF000000FF00C37A0E0000C0CF
:1007200070C000030E0E0300C070C00001077CC043
:1007300000E3321A0A0A8ACAFAC67C00000003FEE5
:1007400000FF00000000FF73C10000083CE68300CA
:10075000FE03010078FCEE4A4E4C404040613F03EE
:10076000FE00000000F80C06020202030000000078
:1007700003060C081810101010101010180818108C
:1007800010190F000F181010180F000F1810101864
:100790000F0000001F1010101F0F191010180E036B
:1007A00000030E181010180E0300030E1810101975
:1007B0000F070C181010111119080C181010180F31
:1007C000000F181010180F0001071C101010190F3F
:1007D00001070C081810111111111111190F000047
:1007E0001F101010101F0000000000002F4000001C
:1007F00000000000000000000000808080C0E0FEDB
:10080000FF191E9898981818181818189E9F991E66
:1008100038F0E000000000000000000000000000D0
:100820000000000000003CFEFFFF99F1E1C3FFFF64
:100830000000636363606060606060636363000026
:10084000FFFF7C3800000000000000000000008076
:10085000C060B0D8D81CFCFF3F0F8FCFC7C7C7C63A
:10086000C6C6C6C6C6C6C6C6C6C6C6C6C6C6C6C727
:10087000C7C4CC0C1CF8F870C00000000EFFF92AA9
:100880002B2B2828FCFFFF0000FFFFFFFFFFFFFFCF
:10089000BFB717B5BDB500B5B5F717FFBFBFFFFFB1
:1008A000FFFF0000FFFFFCFF0700C0F0FFFFFDDDC2
:1008B0001D19193FFFFF0000FFFFFFFFFFFFFFFBB8
:1008C000F1FBFBEAEEC0EEEAFAF0FAFAFFFFFFFFF7
:1008D000FF0000FFFF0F1FF8E00003070F0F1B18BA
:1008E00019FBFEFFFFF0E0C0C1E1F1F1F1F1F1F120
:1008F000F1F1F1F1F1F9F9F9F9F9F9797979F1F021
:1009000010181F070603030000000000000000F895
:10091000FFEFDFBF7FFFFFFF404143437F212020E8
:10092000217FFFFFFF3FB091D1DFD050581F1FF054
:10093000F000000000000000000000000003070FAE
:100940001E3D7B77EED1DEDECF4B4B696968686870
:10095000603F3F373737353430101018181A1B0FE7
:10096000060000000000100FFC0E0FCFCFCFCECC42
:10097000CCCCCCCCCCDCC0C007707E7F7F7F7F7FAF
:100980007F7F7F7F7F7F0F017120FFFFFFFFFFFFD2
:10099000FFFFFFFFFCE0000000000000000000007F
:1009A000E0FCFFFFFFFFFFFFFFFFFFFF0000000075
:1009B0000000000000000000000000000000000037
:1009C000000000000000FFFFFFFFFFFFFF0000002E
:1009D0000000000000000000000000000000000017
:1009E0000000000000000000000000000000000007
:1009F0000000000000000000000000FFFFFFFFFFFC
:100A0000FFFF7FFFFFFFFFFFF8800000000080F086
:100A1000FFFFFFFFFF3FFFFFFFFFFFFFFF000000A3
:100A200030F8F8FCFC7E7E7E3E3E3E3E7E7EFEFE44
:100A3000FCFCF8E0800000FFFFFFFFFFFFFF00006D
:100A400080C0E0F0F8FCFEFE7E3E1E0E06C0E0F028
:100A5000F8FCFCFE7E3E3E3E3E3E7EFEFCFCF8F098
:100A6000C0800000FEFEFEFEFEFEFEFEFFFFFFFF5A
:100A7000FFFFFF00031FFFFFFFFFFFFCE0E0FCFFA5
:100A8000FFFFFFFF1F0100FFFFFFFFFFFFFF000051
:100A9000C0E0F0F0F8F8FC7C7C3C3C3E1E1E1EFFE3
:100AA000FFFFFFFFFFFF0000FFFFFFFFFFFFFFFE55
:100AB000FFFFFFFFFFFFFFF1C080000000FFFFFF0F
:100AC000FFFFFFFF3C3C3C3C3C3C3C3C3C3F3F3F51
:100AD0003F3F3F00000000000000000000FFFFFF5C
:100AE000FFFFFFFF00000000073FFFFFFFFFFFFFCA
:100AF000FFFF3F0700000000FFFFFFFFFFFFFF00B9
:100B0000003F7FFFFFFFFFFCFCF8F8F87C7C3C3ED9
:100B1000FFFFFFFFFFFFFF0000FFFFFFFFFFFFFFE3
:100B20000301000003071F7FFFFFFFFEFCF0E38FC0
:100B30001F3F3F7F7FFEFCF8F8F0F0F0F8F8FCFC78
:100B40007E7E3C300000FEFEFEFEFEFEFEFE50728B
:100B500065763A200043414E43454C00207365635F
:100B600000206D696E0020686F75720020686F75D7
:100B7000727300000000000000005F00000007002A
:100B80000700147F147F14242A7F2A122313086479
:100B90006236495522500005030000001C22410026
:100BA0000041221C00082A1C2A0808083E080800E8
:100BB000503000000808080808006060000020109D
:100BC0000804023E5149453E00427F4000426151C7
:100BD00049462141454B311814127F1027454545A0
:100BE000393C4A49493001710905033649494936BA
:100BF000064949291E00363600000056360000001E
:100C0000081422411414141414412214080002017F
:100C1000510906324979413E7E1111117E7F4949C1
:100C200049363E414141227F4141221C7F49494989
:100C3000417F090901013E414151327F0808087F87
:100C400000417F41002040413F017F081422417F45
:100C5000404040407F0204027F7F0408107F3E41F5
:100C600041413E7F090909063E4151215E7F091934
:100C70002946464949493101017F01013F40404031
:100C80003F1F2040201F7F2018207F63140814631B
:100C90000304780403615149454300007F41410248
:100CA0000408102041417F0000040201020440407A
:100CB000404040000102040020545454787F4844CE
:100CC00044383844444420384444487F38545454C9
:100CD00018087E090102081454543C7F0804047863
:100CE00000447D40002040443D00007F1028440027
:100CF000417F40007C041804787C08040478384460
:100D00004444387C14141408081414187C7C080417
:100D100004084854545420043F4440203C404020A0
:100D20007C1C2040201C3C4030403C44281028447F
:100D30000C5050503C4464544C4400083641000070
:100D4000007F0000004136080008082A1C08081C23
:100D50002A08086275696C64706C6174652E006F96
:100D6000662061646A757374696E6720796F757245
:100D7000007468726F756768207468652070726FA0
:100D80006365737300492077696C6C2067756964CB
:100D90006520796F750043414E43454C00434F4EEB
:100DA00054494E554500473120462569205A25694A
:100DB000205825692059256900473238205A3020AB
:100DC00058302059300066726F6D2074686520625B
:100DD00075696C64706C6174652E0061206D696C5E
:100DE0006C696D65746572206177617900756E74E8
:100DF000696C20746865206E6F7A7A6C65206973FF
:100E000000526F7461746520746865206275747433
:100E10006F6E00342F323100434F4E54494E5545CA
:100E200000434F4E54494E554500473120462569F1
:100E3000205A30004731204625692058256920591D
:100E4000256900473120462569205A350066726FB2
:100E50006D20746865206275696C64706C6174657E
:100E60002E0069732061206D696C6C696D65746515
:100E70007220617761790073637265772074696CA1
:100E80006C20746865206E6F7A7A6C650054757298
:100E90006E206C656674206275696C64706C617438
:100EA0006500352F323100434F4E54494E554500B1
:100EB000473120462569205A3000473120462569B0
:100EC0002058256920592569004731204625692089
:100ED0005A350066726F6D20746865206275696CA2
:100EE00064706C6174652E0069732061206D696C9B
:100EF0006C696D65746572206177617900736372E6
:100F000065772074696C6C20746865206E6F7A7ADE
:100F10006C65005475726E20726967687420627522
:100F2000696C64706C61746500362F323100434F18
:100F30004E54494E554500746865206275696C646D
:100F4000706C617465206C6576656C2E00706170E4
:100F5000657220746F2066696E652D74756E65000C
:100F60006E6F7720757365206120736865657420E6
:100F70006F660052657065617420746869732073D0
:100F80007465702C2062757400372F323100434F26
:100F90004E54494E554500473120462569205A3068
:100FA00000473120462569205825692059256900C8
:100FB000473120462569205A3500626974207265E0
:100FC00073697374616E63652E00756E74696C204D
:100FD000796F75206665656C2061006275696C6467
:100FE000706C61746520616E64206E6F7A7A6C65D6
:100FF00000536C69646520612070617065722062C5
:1010000065747765656E00382F323100434F4E545A
:10101000494E554500434F4E54494E55450074685E
:1010200065206C65667420636F726E65722E2E2E5D
:1010300000526570656174207468697320666F7210
:1010400000392F323100434F4E54494E55450074FC
:10105000686520726967687420636F726E65722EAE
:101060002E2E005265706561742074686973206665
:101070006F720031302F323100434F4E54494E557C
:101080004500444F4E4500746F20696E736572745D
:10109000206D6174657269616C2E00746865206EE4
:1010A00065787420737465702069730074686520B6
:1010B0006275696C64706C617465004E6F77207442
:1010C000686174207765206C6576656C65640031B5
:1010D000312F323100434F4E54494E5545004D3863
:1010E00034004731204631323030302058313130F1
:1010F0002059313000556C74696D616B6572322E08
:1011000000696E7365727420696E2074686973007B
:101110006D6174657269616C20796F752077696C97
:101120006C004E6578742C2073656C656374207454
:1011300068650031322F3231005245414459002058
:101140006173206D6174657269616C2C0031332F9D
:101150003231004D4154455249414C00697320746D
:101160006869732072696768743F00596F752068F9
:101170006176652063686F73656E0031342F32319C
:10118000004E4F00594553006974206973207573F0
:10119000696E672E006F66206D6174657269616C9F
:1011A000006B6E6F77732077686174206B696E6473
:1011B000004E6F7720796F757220556C74696D6180
:1011C0006B6572320031352F323100434F4E544936
:1011D0004E55450053656C65637420746865206DD9
:1011E0006174657269616C006D6174657269616CCE
:1011F000206C6F6164696E67007072696E746865F7
:1012000061642068656174696E6720666F72005062
:101210006C6561736520776169742C0031362F32FB
:10122000310061626F766520746865206172726F4B
:10123000772E00796F757220556C74696D616B65DE
:1012400072322C0066726F6D207468652072656161
:1012500072206F6600496E73657274206E65772028
:101260006D6174657269616C0031372F32310043F2
:101270004F4E54494E5545004C6F6164696E67206E
:101280006D6174657269616C2E2E2E0031382F32BB
:10129000310066726F6D206E6F7A7A6C652E2E2E1D
:1012A000006D6174657269616C20657869747300A2
:1012B0005075736820627574746F6E207768656E00
:1012C0000031392F323100434F4E54494E554500BD
:1012D0006D616B652061203344205072696E74210A
:1012E0000049276D207265616479206C65742773ED
:1012F0000032302F32310041524520594F55205293
:10130000454144593F00746F207072696E742069C2
:10131000742100616E642070726573732074686557
:1013200020627574746F6E006F6E20746865205350
:10133000442D636172640053656C656374206120A1
:101340007072696E742066696C650032312F3231BB
:10135000004C45542753205052494E540052656169
:1013600064696E6720636172642E2E2E0032312F05
:10137000323100796F757220556C74696D616B65DF
:1013800072322E2E2E00746861742063616D6520A8
:101390007769746800506C6561736520696E736568
:1013A00072742053442D636172640032312F3231E4
:1013B00000473238205A3000627574746F6E2074A2
:1013C0006F20636F6E74696E756500556C74696D1E
:1013D000616B6572212050726573732074686500BB
:1013E00073746172747570206F6620796F75720006
:1013F00057656C636F6D6520746F20746865206637
:101400006972737400312F323100434F4E54494E8C
:10141000554500612066697273742072756E20777D
:10142000697A6172642E0077616C6B20796F752028
:101430007468726F7567680066697273742073747C
:10144000617274757020492077696C6C0042656325
:1014500061757365207468697320697320746865A9
:1014600000322F323100434F4E54494E554500470C
:101470003120462569205A256900473238205A30E4
:1014800000676F696E6720746F20646F20746861F5
:1014900074206E6F772E0061646A7573746D656E6B
:1014A00074732C20776520617265007765206E6506
:1014B000656420746F20646F20736F6D65004166F2
:1014C000746572207472616E73706F727461746986
:1014D0006F6E00332F323100434F4E54494E554505
:1014E00000473120462569205A2569205825692062
:1014F00059256900473238205830205930004300C0
:10150000432F00436C69636B20746F2072657475A0
:10151000726E004275696C64706C617465207465EC
:101520006D702E3A0052455455524E00414456417A
:101530004E434544004255494C442D7C504C415447
:101540004500250046616E20737065656400473173
:1015500020462569205825692059256900473238D9
:101560002058205900473120462569205A34300040
:10157000473238205A004D383400473238205A005C
:101580004D3834004732382058205900473238202F
:101590005A00414456414E43454400746F206465EF
:1015A0006661756C743F005265736574206576657D
:1015B00072797468696E67004E4F00594553006D2B
:1015C00000204D61743A003A005072696E74696E81
:1015D000673A003A004D616368696E65206F6E205E
:1015E000666F723A0052455455524E0056657273FA
:1015F000696F6E20444556004665622031362032C0
:101600003032302031363A31363A35300052455496
:1016100055524E006D410043757272656E742045DF
:10162000006D410043757272656E74205A006D4101
:101630000043757272656E7420582F59006D6D2FBE
:10164000736563004D6178207370656564205A008E
:101650006D6D2F736563004D6178207370656564EF
:101660002059006D6D2F736563004D617820737094
:101670006565642058006D6D2F73656300582F59A0
:10168000204A65726B0030306D6D2F7365635E327A
:1016900000416363656C65726174696F6E004D4FE4
:1016A00054494F4E006D41006D41006D41006D6D1C
:1016B0002F736563006D6D2F736563006D6D2F7300
:1016C0006563006D6D2F736563006D6D2F736563CA
:1016D0005E32003F3F3F0043757272656E74204575
:1016E0000043757272656E74205A0043757272659C
:1016F0006E7420582F59004D6178207370656564B1
:10170000205A004D61782073706565642059004D42
:101710006178207370656564205800582F59204AFD
:1017200065726B00416363656C65726174696F6EAD
:10173000003C2052455455524E006D6D2F73656329
:101740000052657472616374207370656564006D26
:101750006D0052657472616374206C656E677468A5
:101760000052455452414354494F4E006D6D2F7302
:101770006563006D6D003F3F3F00526574726163A9
:1017800074207370656564005265747261637420BF
:101790006C656E677468003C2052455455524E008B
:1017A0004300432F00436C69636B20746F207265A4
:1017B0007475726E00526F7461746520746F206569
:1017C000787472756465004E6F7A7A6C6520746502
:1017D0006D70657261747572653A004732382058D1
:1017E00030205930004300432F00436C69636B2065
:1017F000746F2072657475726E004E6F7A7A6C65C4
:101800002074656D70657261747572653A002500AB
:101810004272696768746E657373004C45440025B5
:10182000003F3F3F0020476C6F77207768656E2050
:10183000646F6E6500204F6E207768696C6520705C
:1018400072696E74696E670020416C7761797320EC
:101850004F66660020416C77617973204F6E0042BD
:1018600072696768746E657373003C205245545505
:10187000524E0056657273696F6E204445560025BE
:10188000004300432F004300432F0025003F3F3F0C
:1018900000466163746F72792072657365740052DB
:1018A000756E74696D65207374617473005665722A
:1018B00073696F6E004D6F74696F6E207365747419
:1018C000696E67730052657472616374696F6E202C
:1018D00073657474696E6773005365742066616E16
:1018E000207370656564004D6F7665206D61746569
:1018F0007269616C00496E73657274206D61746504
:101900007269616C005261697365206275696C640B
:10191000706C617465004C6F776572206275696CDC
:1019200064706C61746500486F6D65206865616402
:1019300000486561747570206275696C64706C61D3
:10194000746500486561747570206E6F7A7A6C6595
:10195000004C45442073657474696E6773003C20C5
:1019600052455455524E00435045004350450043A4
:1019700050450055504554004350450041425300E6
:10198000504C41006D6174657269616C20696E73C1
:10199000657274696F6E00436F6F6C696E6720705B
:1019A00072696E746865616420666F720048656173
:1019B00074696E67207072696E7468656164206610
:1019C0006F720061626F7665207468652061727263
:1019D0006F772E00796F7572206D616368696E652F
:1019E0002C0066726F6D20746865206261636B7392
:1019F000696465206F6600496E73657274206E6558
:101A000077206D6174657269616C0043414E434596
:101A10004C00524541445900466F727761726469C7
:101A20006E67206D6174657269616C00636F6D65CE
:101A300073206F757420746865206E6F7A7A6C6598
:101A400000576169742074696C6C206D61746572F3
:101A500069616C0043414E43454C00524541445935
:101A600000666F72206D6174657269616C207265C9
:101A70006D6F76616C0048656174696E6720707285
:101A8000696E746865616400526576657273696E2B
:101A900067206D6174657269616C0052656D6F7667
:101AA00065206D6174657269616C0043414E434508
:101AB0004C005245414459004D4154455249414C16
:101AC00000250046616E3A20004300430025004691
:101AD0006C6F773A006D6D004731204625692058BC
:101AE000256920592569004732382058302059305F
:101AF0000052455455524E0053455454494E475395
:101B0000004348414E4745004D4154455249414CE0
:101B10000053656C6563746564206D6174657269FA
:101B2000616C3A004F4B006469616D6574657200C9
:101B3000666C6F770066616E5F73706565640062E6
:101B400065645F74656D706572617475726500744B
:101B5000656D7065726174757265006E616D6500AA
:101B60005B6D6174657269616C5D00666F756E6452
:101B7000206F6E20636172642E004E6F206D617461
:101B8000657269616C2066696C65005265616469A3
:101B90006E6720636172642E2E2E00506C65617337
:101BA0006520696E736572742063617264004E6FA4
:101BB0002053442D43415244210066726F6D2074BE
:101BC00068652053442063617264004C6F616465F2
:101BD00064206D6174657269616C73004F4B000A1B
:101BE0000A006469616D657465723D000A00666C87
:101BF0006F773D000A0066616E5F73706565643DD6
:101C0000000A006265645F74656D70657261747569
:101C100072653D000A0074656D706572617475725D
:101C2000653D000A006E616D653D005B6D61746528
:101C30007269616C5D0A0052656164696E67206358
:101C40006172642E2E2E00506C6561736520696E82
:101C5000736572742063617264004E6F2053442D6B
:101C6000434152442100696E204D4154455249413F
:101C70004C2E54585400746F2074686520534420CF
:101C800063617264005361766564206D617465728E
:101C900069616C73004F4B0025004D61746572697A
:101CA000616C20666C6F7700250046616E20737052
:101CB000656564006D6D004D6174657269616C20CD
:101CC0004469616D657465720043004275696C64B6
:101CD000706C6174652054656D702E00430054650E
:101CE0006D7065726174757265004D41544552495D
:101CF000414C0050524553455453004E6577207077
:101D00007265736574003C2052455455524E00254F
:101D10000025006D6D00430043003F3F3F005374BA
:101D20006F72652061732070726573657400466C14
:101D30006F7720250046616E004469616D657465AA
:101D40007200486561746564206275696C64706CCA
:101D50006174650054656D706572617475726500BB
:101D60003C2052455455524E004C6F6164732061C3
:101D70006C6C206D6174657269616C73005361767F
:101D8000657320616C6C206D6174657269616C7340
:101D9000004D6F646966792074686520736574749A
:101DA000696E677300250046616E3A200043004368
:101DB000002500466C6F773A006D6D00496D706FBD
:101DC00072742066726F6D205344004578706F7294
:101DD0007420746F20534400437573746F6D697A77
:101DE00065003C2052455455524E00473238205829
:101DF00030205930004300432F00436C69636B204F
:101E0000746F2072657475726E004E6F7A7A6C65AD
:101E10002074656D70657261747572653A00534423
:101E20002043415244004731204631323030302087
:101E300058352059313000473238003B464C415626
:101E40004F523A556C746947436F6465003B464C8A
:101E500041564F523A556C746947436F6465004E62
:101E60006F2066696C657320666F756E6421004F24
:101E70004B004F4B0052656164696E67206361726D
:101E8000642E2E2E00506C6561736520696E73653B
:101E900072742063617264004E6F2053442D43417D
:101EA000524421003C204241434B003C20524554C7
:101EB00055524E0066726F6D2074686520736C69B0
:101EC0006365722E0073657474696E672077697438
:101ED000682073657474696E67006F7665727269E5
:101EE0006465206D616368696E650054686973207C
:101EF00066696C652077696C6C0043414E43454CC4
:101F000000434F4E54494E5545004D363031205810
:101F100035205935205A2569204C2569004D383423
:101F20000047323800473238205A300047323820D4
:101F3000583020593000473120462569204530006F
:101F400047393220452569004D34303100756C74B5
:101F5000696D616B65722E636F6D2F45523038006D
:101F6000476F20746F3A0072656164696E67205331
:101F7000442D6361726421004572726F722077682C
:101F8000696C650052455455524E20544F204D41C6
:101F9000494E006F66207072696E74696E672061C9
:101FA000726561005472696564207072696E74694B
:101FB0006E67206F7574004552524F523A00524579
:101FC0005455524E20544F204D41494E004300433A
:101FD00020005072696E74657220636F6F6C696E59
:101FE0006720646F776E004241434B20544F204D71
:101FF000454E5500746865207072696E742E0059E4
:102000006F752063616E2072656D6F76650050722A
:10201000696E742066696E69736865640042414345
:102020004B20544F204D454E550054696D65206C32
:102030006566740054696D65206C65667420756E04
:102040006B6E6F776E004300430048656174696E84
:1020500067206275696C64706C617465004300434D
:102060000048656174696E67005072696E74696ECC
:10207000673A0050415553450054554E450054555C
:102080004E45004348414E47457C4D4154455249D9
:10209000414C00524553554D457C5052494E5400D9
:1020A00025004272696768746E6573730025004D80
:1020B0006174657269616C20666C6F7700250046FB
:1020C000616E2073706565640025005072696E74DE
:1020D0002073706565640054554E45006D6D2F7317
:1020E0006563005265747261637420737065656422
:1020F000006D6D0052657472616374206C656E676B
:1021000074680052455452414354494F4E006D6D1E
:102110002F736563006D6D003F3F3F005265747221
:1021200061637420737065656400526574726163E5
:1021300074206C656E677468003C2052455455529B
:102140004E0041626F727420746865207072696E0F
:10215000743F004E4F0059455300250025002500CF
:10216000430043004300430025004C454420427295
:10217000696768746E657373005265747261637425
:10218000696F6E004D6174657269616C20666C6F79
:10219000770046616E207370656564004275696CF6
:1021A00064706C6174652074656D702E0054656D8B
:1021B0007065726174757265005370656564004185
:1021C000626F7274003C2052455455524E0050725A
:1021D00065706172696E6720746F207072696E74C9
:1021E0003A0048656174696E672075702E2E2E0066
:1021F00041424F52540054554E45004E6F20696E77
:10220000666F20617661696C61626C65006D006D5E
:10221000004D6174657269616C3A200054696D65A6
:102220003A20003B4D4154455249414C3A003B5401
:10223000494D453A00466F6C646572004572726F95
:10224000723A005072696E7465722073746F7070A8
:1022500065642064756520746F206572726F727397
:102260002E2046697820746865206572726F72202E
:10227000616E6420757365204D39393920746F2083
:10228000726573746172742E202854656D70657266
:1022900061747572652069732072657365742E2090
:1022A0005365742069742061667465722072657369
:1022B00074617274696E6729005072696E74657218
:1022C0002068616C7465642E206B696C6C28292011
:1022D00063616C6C65642100446F6E652073617688
:1022E000696E672066696C652E006F6B004D323930
:1022F000006563686F3A00256920686F7572732006
:102300002569206D696E7574657300446F6E652074
:102310007072696E74696E672066696C65005072D0
:10232000696E7465722073746F7070656420647573
:102330006520746F206572726F72732E2046697803
:1023400020746865206572726F7220616E642075FA
:102350007365204D39393920746F2072657374614B
:1023600072742E202854656D706572617475726583
:102370002069732072657365742E2053657420691B
:102380007420616674657220726573746172746919
:102390006E6729006F6B004E6F204C696E65204E92
:1023A000756D626572207769746820636865636B18
:1023B00073756D2C204C617374204C696E653A20E6
:1023C000004E6F20436865636B73756D2077697489
:1023D00068206C696E65206E756D6265722C204C8C
:1023E000617374204C696E653A2000636865636BA5
:1023F00073756D206D69736D617463682C204C6119
:102400007374204C696E653A20004C696E65204EED
:10241000756D626572206973206E6F74204C6173F4
:1024200074204C696E65204E756D6265722B312C7F
:10243000204C617374204C696E653A20004D313137
:102440003000526573656E643A20006F6B002200A5
:10245000556E6B6E6F776E20636F6D6D616E643A53
:10246000202200456C656374726F6E6963735F74DC
:10247000657374004163746976652045787472757C
:102480006465723A2000496E76616C6964206578F3
:1024900074727564657200540020423A3000204224
:1024A0003A31006F6B20523A0020633A0020643AC0
:1024B0000020693A0020703A006F6B002200556ED0
:1024C0006B6E6F776E20636F6D6D616E643A202264
:1024D000006F70656E0054524947474552454400AD
:1024E0007A5F6D61783A20006F70656E00545249D2
:1024F00047474552454400795F6D61783A20006F47
:1025000070656E0054524947474552454400785F14
:102510006D696E3A20005265706F7274696E672043
:10252000656E6473746F70207374617475730046A4
:1025300049524D574152455F4E414D453A4D6172AA
:102540006C696E20556C74696D616B6572323B20ED
:10255000537072696E7465722F6772626C206D6160
:102560007368757020666F722067656E3620464905
:10257000524D574152455F55524C3A687474703A07
:102580002F2F6769746875622E636F6D2F556C7499
:10259000696D616B65722050524F544F434F4C5FD1
:1025A00056455253494F4E3A312E30204D41434803
:1025B000494E455F545950453A556C74696D616B8D
:1025C00065722045585452554445525F434F554E0D
:1025D000543A310A005A3A00593A0020436F756E56
:1025E0007420583A2000453A005A3A00593A0058A7
:1025F0003A0020423A0020453A00543A003F002079
:10260000573A0020453A00543A002042403A002010
:10261000403A00202F0020423A00202F006F6B200C
:10262000543A002569206D696E2C20256920736558
:102630006300456E642066696C65206C6973740084
:10264000426567696E2066696C65206C6973740009
:1026500000000000008060430000664300000000AE
:10266000000000000000000000006643008060439E
:1026700000006643456E6473746F70207374696CF8
:102680006C20707265737365642061667465722076
:102690006261636B696E67206F66662E20456E64AB
:1026A00073746F7020737475636B3F00456E647351
:1026B000746F70206E6F7420707265737365642020
:1026C000616674657220686F6D696E6720646F77EC
:1026D0006E2E20456E6473746F702062726F6B652E
:1026E0006E3F00456E6473746F70206E6F7420705F
:1026F00072657373656420616674657220686F6DBE
:10270000696E6720646F776E2E20456E6473746FF8
:10271000702062726F6B656E3F0000006643008040
:102720006043000066430000E0400000E04000001D
:10273000E040FF01014D32313820496E76616C690D
:102740006420657874727564657220004D3130398B
:1027500020496E76616C6964206578747275646571
:102760007220004D31303520496E76616C696420ED
:10277000657874727564657220004D31303420497B
:102780006E76616C69642065787472756465722018
:10279000002020506C616E6E6572427566666572CF
:1027A00042797465733A20002046726565204D6554
:1027B0006D6F72793A2000466562203136203230E2
:1027C000323000436F6D70696C65643A2000566565
:1027D0007273696F6E2044455600207C20417574E9
:1027E000686F723A200046656220313620323032FE
:1027F000302031363A31363A353000204C6173742E
:1028000020557064617465643A2000312E302E309A
:10281000004D61726C696E200020536F66747761A1
:102820007265205265736574002057617463686433
:102830006F67205265736574002042726F776E2057
:102840006F757420526573657400204578746572E5
:102850006E616C20526573657400506F77657255B8
:1028600070007374617274002200656E7175656921
:102870006E672022002200656E717565696E6720A3
:10288000220000002110422063308440A550C66021
:10289000E770088129914AA16BB18CC1ADD1CEE11D
:1028A000EFF13112100273325222B5529442F77294
:1028B000D662399318837BB35AA3BDD39CC3FFF36D
:1028C000DEE36224433420040114E664C774A444A4
:1028D00085546AA54BB528850995EEE5CFF5ACC5BD
:1028E0008DD55336722611163006D776F666955674
:1028F000B4465BB77AA719973887DFF7FEE79DD70D
:10290000BCC7C448E5588668A77840086118022803
:102910002338CCC9EDD98EE9AFF9488969990AA95C
:102920002BB9F55AD44AB77A966A711A500A333AD3
:10293000122AFDDBDCCBBFFB9EEB799B588B3BBBAC
:102940001AABA66C877CE44CC55C222C033C600C63
:10295000411CAEED8FFDECCDCDDD2AAD0BBD688DFC
:10296000499D977EB66ED55EF44E133E322E511EB3
:10297000700E9FFFBEEFDDDFFCCF1BBF3AAF599F4C
:10298000788F8891A981CAB1EBA10CD12DC14EF1EC
:102990006FE18010A100C230E32004502540467052
:1029A0006760B9839893FBA3DAB33DC31CD37FE37D
:1029B0005EF3B1029012F322D232354214527762A2
:1029C0005672EAB5CBA5A89589856EF54FE52CD54D
:1029D0000DC5E234C324A0148104667447642454F2
:1029E0000544DBA7FAB79987B8975FE77EF71DC75D
:1029F0003CD7D326F2369106B01657667676154642
:102A000034564CD96DC90EF92FE9C899E9898AB9AC
:102A1000ABA94458654806782768C018E108823891
:102A2000A3287DCB5CDB3FEB1EFBF98BD89BBBABBC
:102A30009ABB754A545A376A167AF10AD01AB32AE1
:102A4000923A2EFD0FED6CDD4DCDAABD8BADE89D0C
:102A5000C98D267C076C645C454CA23C832CE01C31
:102A6000C10C1FEF3EFF5DCF7CDF9BAFBABFD98F9C
:102A7000F89F176E367E554E745E932EB23ED10E81
:102A8000F01E7C3C3E5E2B3D3F2F5B5D3B2C2A22A3
:102A90005C006563686F3A0020746F6F206C6F6E26
:102AA0006720657874727573696F6E2070726576D1
:102AB000656E7465640020636F6C64206578747261
:102AC0007573696F6E2070726576656E74656400EB
:102AD00045313A200045303A20005A3A2000593A10
:102AE0002000583A20004D53312C4D53322050696C
:102AF0006E730A0024F404D9201BC40C5C0E9804E5
:102B0000C4095F0265077101F405F900FB04B30015
:102B100048048700C10369005803550003034500BA
:102B2000BE023A008402310053022A002902250025
:102B300004022000E4011C00C8011900AF011700C5
:102B4000980114008401130071011000610110004C
:102B500051010E0043010D0036010B002B010B004B
:102B600020010B00150109000C01090003010800F8
:102B7000FB000800F3000800EB000700E40006007B
:102B8000DE000600D8000600D2000600CC000500DA
:102B9000C7000500C2000500BD000400B900040024
:102BA000B5000400B1000400AD000400A900040059
:102BB000A5000300A20003009F0004009B00030087
:102BC00098000300950002009300030090000300AA
:102BD0008D0002008B0003008800020086000200C6
:102BE00084000300810002007F0002007D000200DB
:102BF0007B000200790002007700010076000200ED
:102C00007400020072000100710002006F000200F7
:102C10006D0001006C0002006A0001006900020002
:102C20006700010066000100650001006400020009
:102C30006200010061000100600001005F0002000D
:102C40005D0001005C0001005B0001005A00010012
:102C50005900010058000100570001005600010012
:102C60005500010054000100530000005300010012
:102C70005200010051000100500001004F0001000E
:102C80004E0000004E0001004D0001004C0001000C
:102C90004B0000004B0001004A0001004900010008
:102CA0004800000048000100470001004600000005
:102CB00046000100450000004500010044000100FD
:102CC00043000000430001004200000042000100F8
:102CD0004100000041000100400001003F000000F1
:102CE0003F0001003E0000003E0001003D000000EA
:102CF0003D0001003C0000003C0000003C000100E1
:102D00003B0000003B0001003A0000003A000100D7
:102D100039000000390001003800000038000000D0
:102D200038000100370000003700010036000000C5
:102D300036000000360001003500000035000000BC
:102D400035000100340000003400000034000100B0
:102D500033000000330000003300010032000000A7
:102D6000320000003200010031000000310000009C
:102D70003100010030000000300000003000010090
:102D80002F0000002F0000002F0000002F00010086
:102D90002E0000002E0000002E0001002D0000007B
:102DA0002D0000002D0000002D0001002C0000006F
:102DB0002C0000002C0000002C0001002B00000063
:102DC0002B0000002B0000002B0001002A00000057
:102DD0002A0000002A0000002A000100290000004B
:102DE000290000002900000029000000290001003E
:102DF0002800000028000000280000002800000033
:102E00002800010027000000270000002700000024
:102E10002700000027000100260000002600000017
:102E2000260000002600000026000100250000000A
:102E300025000000250000002500000025000000FE
:102E400025000100240000002400000024000000F0
:102E500024000000240001002300000023000000E3
:102E600023000000230000002300000023000000D6
:102E700023000100220000002200000022000000C8
:102E800022000000220000002200010021000000BA
:102E900021000000210000002100000021000000AE
:102EA000210000002100010020000000200000009F
:102EB0002000000020000000200000002000000092
:102EC00020000000200001001F0000001F00000083
:102ED0001F0000001F0000001F0000001F00000076
:102EE0001F0001001E0000001E0000001E00000068
:102EF0001E00000024F4D43050C38E20C2A240171C
:102F0000828B7011127A910D816CD90AA861E10847
:102F1000C7586607615143061E4B5D05C145A704AE
:102F20001A411104093D9803713931034036DB021F
:102F300065339102D4305402802E1D02632CEE01C1
:102F4000752AC501B028A001102781018F256401D1
:102F50002B244B01E0223401AC211F018D200D01F7
:102F6000801FFC00841EED00971DDF00B81CD200FE
:102F7000E61BC600201BBC00641AB200B219A800F0
:102F80000A19A0006A189900D117910040178B0008
:102F9000B516840031167E00B31579003A1573001A
:102FA000C7146F0058146A00EE136600881363009C
:102FB00025135E00C7125B006C12570015125400F7
:102FC000C111510070114F0021114B00D610490062
:102FD0008D1047004610440002104200C00F400010
:102FE000800F3E00420F3C00060F3B00CB0E380026
:102FF000930E37005C0E3500270E3400F30D3200BF
:10300000C10D3100900D3000600D2E00320D2D00ED
:10301000050D2C00D90C2B00AE0C2900850C2900C5
:103020005C0C2700350C27000E0C2600E80B240052
:10303000C40B2400A00B23007D0B23005A0B21009E
:10304000390B2100180B2000F80A1F00D90A1E00B6
:10305000BB0A1E009D0A1D00800A1D00630A1C0099
:10306000470A1B002C0A1B00110A1A00F7091A0054
:10307000DD091900C4091900AB09190092091700EC
:103080007B091800630917004C0916003609160061
:10309000200916000A091500F5081500E0081400BB
:1030A000CC081400B8081400A408140090081300F9
:1030B0007D0812006B081300580812004608120021
:1030C0003408110023081100120811000108110032
:1030D000F0071000E0071000D0071000C007100034
:1030E000B0070F00A107100091070E0083070F0023
:1030F00074070F0065070E0057070E0049070E0002
:103100003B070D002E070E0020070D0013070D00D2
:1031100006070D00F9060C00ED060D00E0060C0098
:10312000D4060C00C8060C00BC060C00B0060C004F
:10313000A4060B0099060C008D060B0082060B00FE
:1031400077060B006C060B0061060A0057060B00A1
:103150004C060A0042060A0038060A002E060A003B
:1031600024060A001A060A001006090007060A00CB
:10317000FD050900F4050900EB050900E205090059
:10318000D9050900D0050900C7050900BE050900D9
:10319000B5050800AD050800A50509009C05080057
:1031A000940508008C050800840508007C050800CB
:1031B000740508006C050700650508005D0507003B
:1031C000560508004E0507004705070040050800A2
:1031D00038050700310507002A0507002305070009
:1031E0001C050600160507000F0507000805060068
:1031F00002050700FB040600F5040700EE040600C4
:10320000E8040600E2040700DB040600D50406001B
:10321000CF040600C9040600C3040600BD0406006E
:10322000B7040600B1040500AC040600A6040600BD
:10323000A00405009B040600950405009004060008
:103240008A04050085040500800406007A04050050
:1032500075040500700405006B0405006604050094
:10326000610405005C0405005704050052040500D4
:103270004D04050048040500430405003E04040015
:103280003A04050035040500300404002C04050050
:1032900027040400230405001E0404001A0404008B
:1032A00016040500110404000D04040009040500BF
:1032B0000404040000040400FC030400F8030400F8
:1032C000F4030400F0030400EC030400E80304002A
:1032D000E4030400E0030400DC030400D80304005A
:1032E000D4030400D0030400CC030400C80303008B
:1032F000C50303006563686F3A00205A3A002059FD
:103300003A0020583A00656E6473746F70732068D9
:1033100069743A20004572726F723A003A2045781B
:10332000747275646572207377697463686564206C
:103330006F66662E204D415854454D502074726979
:103340006767657265642021003A2045787472755C
:10335000646572207377697463686564206F66665C
:103360002E204D494E54454D502074726967676553
:1033700072656420210054656D70657261747572A8
:10338000652068656174656420626564207377698F
:103390007463686564206F66662E204D41585445FD
:1033A0004D50207472696767657265642021210041
:1033B000202D20496E76616C696420657874727581
:1033C000646572206E756D626572202100000000D8
:1033D0000018070100A807140030082800B8083CAE
:1033E0000038095000C0096400480A7800C80A8CF7
:1033F00000480BA000C80BB400480CC800C80CDC87
:1034000000400DF000C00D0401380E1801B00E2C64
:1034100001280F4001A00F54011810680188107C8A
:1034200001001190013013F401481558024017BCF7
:103430000228192003F01A8403A81CE803401E4C3C
:1034400004504944204175746F74756E6520666937
:103450006E697368656421205075742074686520F6
:103460004B702C204B6920616E64204B6420636F8D
:103470006E7374616E747320696E746F20436F6E27
:1034800066696775726174696F6E2E680050494491
:10349000204175746F74756E65206661696C656432
:1034A000212074696D656F75740020403A006F6B60
:1034B00020543A006F6B20423A0050494420417535
:1034C000746F74756E65206661696C656421205443
:1034D000656D706572617475726520746F6F2068B8
:1034E00069676800204B643A2000204B693A20004D
:1034F000204B703A200020436C6173736963205045
:10350000494420002054753A2000204B753A200091
:10351000206D61783A2000206D696E3A20002064A9
:103520003A200020626961733A20005049442041EA
:1035300075746F74756E6520737461727400504990
:1035400044204175746F74756E65206661696C65A1
:10355000642E2042616420657874727564657220FF
:103560006E756D6265722E004D38342058205920DA
:103570005A2045006563686F3A0043616E6E6F7450
:1035800020656E746572207375626469723A2000FA
:103590004D3234004D3233202573006175746F2530
:1035A000692E67004572726F723A006572726F72AF
:1035B0002077726974696E6720746F2066696C6524
:1035C0000043617264206572726F723A004E6F74CC
:1035D000205344207072696E74696E67002F005327
:1035E00044207072696E74696E6720627974652018
:1035F000002E0044656C6574696F6E206661696CAD
:1036000065642C2046696C653A200046696C65202B
:1036100064656C657465643A002E006F70656E2099
:103620006661696C65642C2046696C653A200057B8
:10363000726974696E6720746F2066696C653A20E0
:10364000002E006F70656E206661696C65642C20C9
:1036500046696C653A20002E006F70656E206661C9
:10366000696C65642C2046696C653A200046696C7B
:10367000652073656C6563746564002053697A65C1
:103680003A200046696C65206F70656E65643A206B
:10369000002E006F70656E206661696C65642C2079
:1036A00046696C653A200053442063617264206F60
:1036B0006B006F70656E526F6F74206661696C6528
:1036C0006400766F6C756D652E696E697420666135
:1036D000696C656400534420696E69742066616991
:1036E0006C0043616E6E6F74206F70656E20737531
:1036F00062646972006563686F3A0048617264636E
:103700006F6465642044656661756C7420536574EC
:1037100074696E6773204C6F616465640056303164
:10372000300053746F7265642073657474696E67DA
:1037300073207265747269657665640020440020A8
:1037400049002020204D3330312050005049442082
:1037500073657474696E67733A00205A00205900CB
:1037600020204D323036205800486F6D65206F663E
:103770006673657420286D6D293A00204500205A33
:103780000020580020420020540020204D323035C7
:10379000205300416476616E6365642076617269CE
:1037A00061626C65733A20533D4D696E20666565B4
:1037B000647261746520286D6D2F73292C20543D2F
:1037C0004D696E2074726176656C20666565647201
:1037D00061746520286D6D2F73292C20423D6D6921
:1037E0006E696D756D207365676D656E74207469A3
:1037F0006D6520286D73292C20583D6D6178696DA9
:10380000756D205859206A65726B20286D6D2F7375
:10381000292C20205A3D6D6178696D756D205A20E4
:103820006A65726B20286D6D2F73292C2020453D11
:103830006D6178696D756D2045206A65726B202811
:103840006D6D2F73290020540020204D323034201C
:103850005300416363656C65726174696F6E3A20F1
:10386000533D616363656C65726174696F6E2C2092
:10387000543D7265747261637420616363656C6545
:10388000726174696F6E00204500205A0020590053
:1038900020204D3230312058004D6178696D756DB2
:1038A00020416363656C65726174696F6E20286D79
:1038B0006D2F7332293A00204500205A002059000C
:1038C00020204D3230332058004D6178696D756D80
:1038D0002066656564726174657320286D6D2F7351
:1038E000293A00204500205A0020590020204D3957
:1038F0003220580053746570732070657220756EA5
:1039000069743A0053657474696E67732053746FF9
:1039100072656400544553540D0A000D0A00556E3B
:103920006B6E6F776E20636F6D6D616E643A200011
:103930000D0A003F0056657273696F6E204445564C
:103940000002494E46494E4954594E414ECDCCCCC9
:103950003D0AD7233C17B7D13877CC2B329595E663
:10396000241FB14F0A000020410000C84200401C43
:103970004620BCBE4CCA1B0E5AAEC59D74000D94A9
:1039800064000D9415010D94AD000D940F010D947C
:103990000D010D94FD000D9419010D9482000D94FC
:1039A00011010D948C000D9407010D94E8000D9405
:1039B00013010D9456010D94C3000D94FF000D9456
:1039C00097000D94F7000D94B8000D945D000D94D0
:1039D0004F000D943A000D94FB000D946B000D9474
:1039E00009010D9405010D9456000D940B010D94E1
:1039F000F9000D94DB000D9401010D94CE000D949F
:103A000048000D94A2000D9403010D947A000D94CA
:103A100037000D9472001C804AAB158011241FBE24
:103A2000CFEFD1E2DEBFCDBF00E00CBF13E0A0E0DE
:103A3000B2E0E4ECFEE002E00BBF02C007900D92A2
:103A4000AC31B107D9F71BBE19E1ACE1B3E001C05D
:103A50001D92A034B107E1F71AE3CAE1DAE304C02A
:103A60002297FE010F940707C631D107C9F70F94BB
:103A7000D7010D9455070C940000A0E0B0E0E3E4FA
:103A8000FDE10D942407EC015B016115710519F04E
:103A9000FB0191838083F9908F2D90E00F940B07A9
:103AA000892BC9F7FDE2FF1621F4F990EE24E39487
:103AB00005C02BE2F21609F4F990EE248E010150B4
:103AC0001040C80162E479E343E050E00E944020E6
:103AD000892B01F58E010E5F1F4FC80165E479E364
:103AE00045E050E00E944020892B19F48E01095FC7
:103AF0001F4FA114B10419F0F50111830083E0FCFC
:103B000004C070E090E080E814C070E090E080E8CD
:103B10006FEF08C1C8016AE479E343E050E00E9416
:103B20004020892B69F4A114B10429F470E090E0DD
:103B300080EC6FE7F7C02296F501D183C083F6CF02
:103B40008824992440E050E060E070E0EF2DE053DD
:103B5000EA30A0F5F2E0EF2A8E2D90E09C0128706B
:103B60003070E2FE06C0232B79F50894811C911C6D
:103B70002BC0232B19F0089481089108DB01CA019E
:103B800012E0880F991FAA1FBB1F1A95D1F7480F83
:103B9000591F6A1F7B1F440F551F661F771F4E0F4B
:103BA000511D611D711D483929E9520729E9620734
:103BB00029E1720748F084E0E82A06C0EE3F31F4BC
:103BC000E3FC39C098E0E92AF990C0CFE53311F061
:103BD000E53189F529912D3219F4E0E1EE2A05C08D
:103BE0002B3219F081E090E003C0299182E090E04F
:103BF000E22FE053EA3018F0C81BD90B1CC020E0BC
:103C000030E0FCE020383F075CF4C901880F991FC1
:103C1000880F991F280F391F220F331F2E0F311DB8
:103C2000E991E053EA3068F3E4FE03C03095219552
:103C30003F4F820E931ECE2CDD24E1FE07C0A1145F
:103C4000B10421F02197F501D183C083CB01BA01E2
:103C50000F9460037B018C01F3E0CF22DD2423E08D
:103C6000C216D10421F417FB109517F910955701CE
:103C70006801C801B70120E030E040E050E00F9457
:103C8000C002882309F44AC097FE0DC021E6E22E47
:103C900029E3F22E9094819491089394C0E2D0E0AD
:103CA00000E010E012C099E7E92E99E3F92EF6CF73
:103CB000F7012591359145915491C601B5010F94B5
:103CC000A0055B016C018C1A9D0A8C169D0684F779
:103CD000D595C7950F5F1F4F0630110529F08CEF62
:103CE0009FEFE80EF91EF1CFC501D6017C018D01D1
:103CF0008C2D880F8D2D881F8F3F51F0C601B50187
:103D000020E030E040E050E00F94C002882331F41E
:103D100082E290E090933F1980933E197E2D9F2D73
:103D2000802F612F272F392F482F562FB901CA0115
:103D3000CDB7DEB7ECE00D9440072F923F925F9233
:103D40006F927F928F929F92AF92BF92CF92DF92AB
:103D5000EF92FF920F931F93CF93DF938C011B0180
:103D6000EA016115710519F0FB01918380832097A9
:103D700049F0CE010297839728F020E030E040E040
:103D800050E0F6C0F801A1908F018A2D90E00F94C9
:103D90000B07892BB9F7FDE2AF1631F4F801A190BA
:103DA0008F015524539407C0FBE2AF1619F4F801B4
:103DB000A1908F015524209719F0C031D105C1F48D
:103DC000F0E3AF1679F4F8018081883711F0883577
:103DD00049F4F801A1800E5F1F4FF2E05F2AC0E1B5
:103DE000D0E006C0209721F480E3A816E9F427C0AC
:103DF000C830D10531F1C930D10524F4C230D10524
:103E000031F50CC0CA30D10589F0C031D105F9F4C3
:103E1000C12CD12CE12CB8E0FB2E28C0C12CD12C18
:103E2000E12CA0E4FA2E22C0CAE0D0E0FCECCF2EB8
:103E3000FCECDF2EFCECEF2EFCE0FF2E17C0C8E000
:103E4000D0E0C12CD12CE12CE0E1FE2E0FC09E0170
:103E5000442737FD4095542F60E070E080E090E803
:103E60000F94B406C901DA016C017D0120E030E055
:103E700040E050E060E03E01882477FC8094982C7C
:103E800070EDB72EBA0CE9E0EB1570F48A2D815471
:103E90008A3118F499ECB92E06C08A2D81568A31E0
:103EA00050F589EAB82EBA0C8B2D90E08C179D073F
:103EB00014F56F3FE1F0C216D306E406F506B0F044
:103EC000CA01B901A40193010F9476069B01AC01CC
:103ED0002B0D311D411D511D2130F0E03F07F0E059
:103EE0004F07F0E85F0710F461E001C06FEFF801E1
:103EF000A1908F01C5CF2114310481F0662331F0E8
:103F000001501040F1011183008308C051FE1AC016
:103F100002501040F1011183008314C067FF12C0EA
:103F200050FC05C02FEF3FEF4FEF5FE704C020E0EC
:103F300030E040E050E882E290E090933F198093B7
:103F40003E1916C050FE08C05095409530952195F9
:103F50003F4F4F4F5F4F0CC057FF0AC082E290E0C7
:103F600090933F1980933E192FEF3FEF4FEF5FE79C
:103F7000B901CA01DF91CF911F910F91FF90EF908E
:103F8000DF90CF90BF90AF909F908F907F906F9079
:103F90005F903F902F900895FC0188279927E8941F
:103FA00021912032E9F3293010F02E30C8F32B3262
:103FB00041F02D3239F4689404C00E94FF20820F32
:103FC000911D219120532A30C0F31EF490958195C4
:103FD0009F4F08951F93FC0199278827BC01E894FF
:103FE00011911032E9F3193010F01E30C8F31B3272
:103FF00051F01D3249F4689406C00E94EA20610F16
:10400000711D811D911D119110531A30B0F33EF4B2
:1040100090958095709561957F4F8F4F9F4F1F9121
:104020000895FB01DC010D900020E9F71197059040
:104030000D920020E1F70895FC010590061621F08D
:104040000020D9F7C00108953197CF010895FB01F1
:10405000DC018D91059080190110D9F3990B089519
:10406000FB01DC0105900D920020E1F70895FC01B1
:1040700005900020E9F7809590958E0F9F1F089579
:10408000FB01DC014150504088F08D9181341CF0DF
:104090008B350CF4805E659161341CF06B350CF44B
:1040A000605E861B611171F3990B0895881BFCCF2C
:1040B000FB01DC014150504030F08D91059080199A
:1040C00019F40020B9F7881B990B0895FB01DC0156
:1040D0004150504048F005900D920020C9F701C0B2
:1040E0001D9241505040E0F70895FB015591552332
:1040F000A9F0BF01DC014D9145174111E1F759F4D9
:10410000CD010590002049F04D9140154111C9F3B2
:10411000FB014111EFCF81E090E001970895FB0191
:10412000DC0104C08D910190801921F44150504070
:10413000C8F7881B990B0895FB01DC0102C00190B0
:104140000D9241505040D8F70895FB01DC010D90CD
:104150000020E9F7119701900D920020E1F70895F2
:10416000FC018191861721F08823D9F799270895BA
:104170003197CF010895FB01DC0101900D920020E1
:10418000E1F70895FB01DC014150504030F08D9182
:104190000190801919F40020B9F7881B990B089534
:1041A000FB01DC014150504048F001900D9200208D
:1041B000C9F701C01D9241505040E0F70895FC013D
:1041C00081E090E00190061609F4CF010020D1F7BC
:1041D00001970895592F482F372F262F660F771FE5
:1041E000881F991F660F771F881F991F620F731F03
:1041F000841F951F660F771F881F991F08957AE007
:10420000979F902D879F802D910D11240895AEE0EA
:10421000B0E0EDE0F1E20D942C070E891F898EE0ED
:104220008C831A8309838FEF9FE79E838D839E0182
:10423000265E3F4FCE010196688D798DA9010E94BF
:104240002B212F813885020F131FF80110822E9623
:10425000E4E00D944807ABE0B0E0E1E3F1E20D9457
:104260001E073C012B015A01FC0117821682838133
:1042700081FD03C06FEF7FEFC6C19AE0892E1E015A
:104280000894211C311CF3012381F20123FD859147
:1042900023FF81912F01882309F4B2C1853239F4BB
:1042A00023FD859123FF81912F01853229F490E030
:1042B000B3010E941E23E7CF982FFF24EE249924F8
:1042C000FFE1FF15D0F09B3269F09C3228F4903268
:1042D00059F0933291F40EC09D3249F0903369F455
:1042E00041E024C052E0F52A84E0F82A28C098E092
:1042F000F92A25C0E0E1FE2A22C0F7FC29C0892F57
:1043000080538A3070F4F6FE05C0989C902C1124DE
:10431000980E15C0E89CE02C1124E80EF0E2FF2A6C
:104320000EC09E3229F4F6FC6BC140E4F42A07C0AB
:104330009C3619F450E8F52A02C0983649F4F20187
:1043400023FD959123FF91912F01992309F0B8CF77
:10435000892F8554833018F08052833038F444E03C
:1043600050E0A40EB51E5FE359830FC0933631F0C1
:10437000933779F0933509F056C020C0F50180815C
:10438000898342E050E0A40EB51E610101E010E017
:1043900012C0F501C080D180F6FC03C06FEF7FEF43
:1043A00002C0692D70E042E050E0A40EB51EC601C7
:1043B0000E9413238C015FE7F52214C0F501C08031
:1043C000D180F6FC03C06FEF7FEF02C0692D70E073
:1043D00042E050E0A40EB51EC6010E9408238C01E5
:1043E00050E8F52AF3FE07C01AC080E290E0B3015E
:1043F0000E941E23EA948E2D90E008171907A8F357
:104400000EC0F601F7FC8591F7FE81916F0190E0F7
:10441000B3010E941E23E110EA94015010400115DF
:10442000110579F7EAC0943611F0993669F5F7FE6F
:1044300008C0F501208131814281538184E090E000
:104440000AC0F501808191819C01442737FD409588
:10445000542F82E090E0A80EB91E9FE6F92257FF84
:1044600009C050954095309521953F4F4F4F5F4F74
:10447000E0E8FE2ACA01B901A1012AE030E00E9469
:104480004A23D82ED21840C0953729F41F2D1F7EFD
:104490002AE030E01DC01F2D197F9F3661F0903754
:1044A00020F4983509F0ACC00FC0903739F0983738
:1044B00009F0A6C004C028E030E00AC0106114FD75
:1044C000146020E130E004C014FD166020E132E009
:1044D00017FF08C0F501608171818281938144E0FA
:1044E00050E008C0F50180819181BC0180E090E03E
:1044F00042E050E0A40EB51EA1010E944A23D82E2E
:10450000D2188FE7F82EF122F6FE0BC05EEFF522EF
:10451000D91438F4F4FE07C0F2FC05C08FEEF8227F
:1045200002C01D2D01C0192DF4FE0DC0FE01ED0DC0
:10453000F11D8081803319F499EEF92208C01F5FC4
:10454000F2FE05C003C08F2D867809F01F5F0F2D86
:10455000F3FC14C0F0FE0FC01E1510F09D2C0BC014
:104560009D2C9E0C911A1E2D06C080E290E0B30196
:104570000E941E231F5F1E15C0F304C01E1510F4F9
:10458000E11A01C0EE2404FF0FC080E390E0B30104
:104590000E941E2302FF1DC001FD03C088E790E0BA
:1045A0000EC088E590E00BC0802F867891F001FF67
:1045B00002C08BE201C080E2F7FC8DE290E0B30123
:1045C0000E941E2306C080E390E0B3010E941E23D8
:1045D0009A94D914C0F3DA94F101ED0DF11D8081A4
:1045E00090E0B3010E941E23DD20A9F706C080E2FF
:1045F00090E0B3010E941E23EA94EE20C1F743CE5F
:10460000F30166817781CB012B96E2E10D943A07A5
:10461000FC010590615070400110D8F7809590958D
:104620008E0F9F1F0895FC01615070400190011092
:10463000D8F7809590958E0F9F1F08950F931F9325
:10464000CF93DF938C01EB018B8181FF1BC082FF35
:104650000DC02E813F818C819D812817390764F41C
:10466000E881F9810193F983E88306C0E885F9853B
:10467000802F1995892B31F48E819F8101969F831C
:104680008E8302C00FEF1FEFC801DF91CF911F9102
:104690000F910895FA01AA27283051F1203181F1B4
:1046A000E8946F936E7F6E5F7F4F8F4F9F4FAF4F3A
:1046B000B1E03ED0B4E03CD0670F781F891F9A1F4D
:1046C000A11D680F791F8A1F911DA11D6A0F711D01
:1046D000811D911DA11D20D009F468943F912AE00D
:1046E000269F11243019305D3193DEF6CF010895F5
:1046F000462F4770405D4193B3E00FD0C9F7F6CF26
:10470000462F4F70405D4A3318F0495D31FD4052ED
:10471000419302D0A9F7EACFB4E0A6959795879583
:1047200077956795BA95C9F7009761057105089562
:104730009B01AC010A2E069457954795379527950E
:10474000BA95C9F7620F731F841F951FA01D0895A6
:104750001F920F920FB60F9211242F933F938F93B6
:104760009F93AF93BF938091200390912103A091D9
:104770002203B0912303309124030196A11DB11DA2
:10478000232F2D5F2D3720F02D570196A11DB11D30
:10479000209324038093200390932103A09322036A
:1047A000B093230380911C0390911D03A0911E03DD
:1047B000B0911F030196A11DB11D80931C0390931E
:1047C0001D03A0931E03B0931F03BF91AF919F9150
:1047D0008F913F912F910F900FBE0F901F901895C2
:1047E0008FB7F89420912003309121034091220348
:1047F000509123038FBFB901CA0108959B01AC01F9
:104800007FB7F89480911C0390911D03A0911E0323
:10481000B0911F0366B5A89B05C06F3F19F00196C4
:10482000A11DB11D7FBFBA2FA92F982F8827860FF2
:10483000911DA11DB11D62E0880F991FAA1FBB1F0A
:104840006A95D1F7BC012DC0FFB7F89480911C0385
:1048500090911D03A0911E03B0911F03E6B5A89B84
:1048600005C0EF3F19F00196A11DB11DFFBFBA2F82
:10487000A92F982F88278E0F911DA11DB11DE2E051
:10488000880F991FAA1FBB1FEA95D1F7861B970BAC
:10489000885E9340C8F221503040404050406851FB
:1048A0007C4F211531054105510571F60895019799
:1048B00039F0880F991F880F991F02970197F1F718
:1048C0000895789484B5826084BD84B5816084BD88
:1048D00085B5826085BD85B5816085BDEEE6F0E079
:1048E000808181608083E1E8F0E0108280818260D5
:1048F0008083808181608083E0E8F0E08081816056
:104900008083E1EBF0E0808184608083E0EBF0E085
:10491000808181608083E1E9F0E080818260808332
:10492000808181608083E0E9F0E080818160808324
:10493000E1EAF0E080818260808380818160808311
:10494000E0EAF0E0808181608083E1E2F1E0808153
:1049500082608083808181608083E0E2F1E08081F9
:1049600081608083EAE7F0E08081846080838081D9
:104970008260808380818160808380818068808381
:104980001092C10008951F93CF93DF93182FEB016E
:1049900061E00E94A325209709F4CAC0CF3FD1054A
:1049A00009F4C9C0E12FF0E0EB52FD4F849189304A
:1049B00009F466C08A30B0F48430F1F1853040F4F7
:1049C000823059F1833070F5813009F0AEC020C0DB
:1049D000873009F443C0883008F048C0863009F0B9
:1049E000A4C034C08D3009F478C08E3038F48B30D8
:1049F00009F45AC08C3008F066C04CC0803109F40C
:104A000080C0813109F487C08F3009F08EC06FC03B
:104A100084B5806884BDC7BD92C084B5806284BD02
:104A2000C8BD8DC080918000806880938000D09345
:104A30008900C093880083C0809180008062809349
:104A40008000D0938B00C0938A0079C08091B00021
:104A500080688093B000C093B30071C08091B000B3
:104A600080628093B000C093B40069C080919000D0
:104A7000806880939000D0939900C09398005FC0A5
:104A800080919000806280939000D0939B00C093AF
:104A90009A0055C080919000886080939000D093D8
:104AA0009D00C0939C004BC08091A00080688093C3
:104AB000A0008091A0008F7B8093A000D093A900DC
:104AC000C093A8003CC08091A00080628093A000A9
:104AD000D093AB00C093AA0032C08091A000886040
:104AE0008093A000D093AD00C093AC0028C080910B
:104AF0002001806880932001D0932901C093280170
:104B00001EC080912001806280932001D0932B01F0
:104B1000C0932A0114C080912001886080932001F5
:104B2000D0932D01C0932C010AC0C038D1051CF4CC
:104B3000812F60E002C0812F61E00E945626DF9144
:104B4000CF911F910895CF93DF93482F50E0CA0172
:104B500081579D4FFC013491475B5D4FFA01849171
:104B6000882369F190E0880F991FFC01E550FE4F02
:104B7000A591B491FC01EB5EFD4FC591D4916623E4
:104B800051F42FB7F8948C91932F909589238C939F
:104B9000888189230BC0623061F42FB7F8948C911F
:104BA000932F909589238C938881832B88832FBFA3
:104BB00006C09FB7F8948C91832B8C939FBFDF9195
:104BC000CF910895893009F449C08A30A0F4843027
:104BD00051F1853040F4823079F1833000F5813035
:104BE00009F063C026C0873079F1883098F58630A7
:104BF00009F05BC025C08D3009F442C08E3028F426
:104C00008B30B1F18C30C0F52DC0803109F442C039
:104C1000813109F445C08F3009F047C037C0809119
:104C200080008F7703C0809180008F7D809380000B
:104C3000089584B58F7702C084B58F7D84BD0895B3
:104C40008091B0008F7703C08091B0008F7D8093FA
:104C5000B0000895809190008F7707C080919000F8
:104C60008F7D03C080919000877F8093900008958E
:104C70008091A0008F7707C08091A0008F7D03C036
:104C80008091A000877F8093A000089580912001EB
:104C90008F7703C0809120018F7D8093200108953C
:104CA00080912001877F809320010895FF920F93C8
:104CB0001F93F62E482F50E0CA018B529D4FFC01E6
:104CC0002491CA0181579D4FFC011491475B5D4FB0
:104CD000FA0104910023C9F0222319F0822F0E94C7
:104CE000E225E02FF0E0EE0FFF1FEB5EFD4FA591F8
:104CF000B4919FB7F894FF2021F48C9110958123F3
:104D000002C08C91812B8C939FBF1F910F91FF90BC
:104D100008951F920F920FB60F920BB60F921124A7
:104D20002F933F934F935F936F937F938F939F93B3
:104D3000AF93BF93EF93FF938091290390912A0340
:104D4000892B29F0E0912903F0912A031995FF910D
:104D5000EF91BF91AF919F918F917F916F915F91F3
:104D60004F913F912F910F900BBE0F900FBE0F9060
:104D70001F9018951F920F920FB60F920BB60F92BD
:104D800011242F933F934F935F936F937F938F9350
:104D90009F93AF93BF93EF93FF9380912B039091D9
:104DA0002C03892B29F0E0912B03F0912C0319950A
:104DB000FF91EF91BF91AF919F918F917F916F91F3
:104DC0005F914F913F912F910F900BBE0F900FBEAF
:104DD0000F901F9018951F920F920FB60F920BB65F
:104DE0000F9211242F933F934F935F936F937F9371
:104DF0008F939F93AF93BF93EF93FF9380912D0376
:104E000090912E03892B29F0E0912D03F0912E0330
:104E10001995FF91EF91BF91AF919F918F917F91E4
:104E20006F915F914F913F912F910F900BBE0F901B
:104E30000FBE0F901F9018951F920F920FB60F92F2
:104E40000BB60F9211242F933F934F935F936F9361
:104E50007F938F939F93AF93BF93EF93FF93809133
:104E60002F0390913003892B29F0E0912F03F091CB
:104E700030031995FF91EF91BF91AF919F918F9161
:104E80007F916F915F914F913F912F910F900BBE4A
:104E90000F900FBE0F901F9018951F920F920FB694
:104EA0000F920BB60F9211242F933F934F935F9362
:104EB0006F937F938F939F93AF93BF93EF93FF93E2
:104EC0008091250390912603892B29F0E0912503F9
:104ED000F09126031995FF91EF91BF91AF919F91AA
:104EE0008F917F916F915F914F913F912F910F9093
:104EF0000BBE0F900FBE0F901F9018951F920F9230
:104F00000FB60F920BB60F9211242F933F934F932E
:104F10005F936F937F938F939F93AF93BF93EF9321
:104F2000FF938091270390912803892B29F0E0912A
:104F30002703F09128031995FF91EF91BF91AF914D
:104F40009F918F917F916F915F914F913F912F91A1
:104F50000F900BBE0F900FBE0F901F9018951F92D1
:104F60000F920FB60F920BB60F9211242F933F930F
:104F70004F935F936F937F938F939F93AF93BF9361
:104F8000EF93FF938091310390913203892B29F0A5
:104F9000E0913103F09132031995FF91EF91BF91A8
:104FA000AF919F918F917F916F915F914F913F91C1
:104FB0002F910F900BBE0F900FBE0F901F90189562
:104FC0001F920F920FB60F920BB60F9211242F93D0
:104FD0003F934F935F936F937F938F939F93AF9381
:104FE000BF93EF93FF938091330390913403892B08
:104FF00029F0E0913303F09134031995FF91EF917B
:10500000BF91AF919F918F917F916F915F914F91E0
:105010003F912F910F900BBE0F900FBE0F901F90DE
:1050200018951092D9181092D8181092DB18109277
:10503000DA1810928B0A08950E948F38089580E341
:1050400093E067E273E04BE153E00E94212E8091F0
:105050005D07882329F120915B0730915C07C90126
:1050600007960F9758F40E94236B8FE598E00E94F3
:1050700043E980E39EE662E070E010C0C901089752
:10508000089718F48CEE94E507C020513040283082
:10509000310530F489EE9AE468EA7FEF0E94B22E7F
:1050A00080915E078823A1F080915B0790915C0757
:1050B000885A9F4F69F41092440380914303893CBE
:1050C00058F08FE698E268EA7FEF0E94B22E04C0A3
:1050D00010924403109243030E94CB310895AF9283
:1050E000BF92CF92DF92EF92FF920F931F93CF93D5
:1050F000DF9380915B0790915C07885A9F4F09F579
:105100008AE190E090935C0780935B07E4E7F7E027
:1051100093E009C09D938F5F8530E1F7359687E076
:10512000E338F80719F0DF0180E0F4CF3F97108AE9
:10513000178680E099E3928B818B148A138A168AF2
:10514000158A80915B0790915C0797FF04C01092CD
:105150005C0710925B0780915B0790915C07880F5A
:10516000991F8B36910534F085E390E090935C07AE
:1051700080935B07809183079091840760918707F4
:1051800070918807860F971F9093840780938307F9
:1051900020918507309186074091890750918A07B1
:1051A000240F351F30938607209385078F3F910585
:1051B00009F054F4CB0177FF03C0909581959F4F80
:1051C0009093880780938707809183079091840745
:1051D00081509C478CF0209187073091880737FFDA
:1051E00003C0309521953F4F88279927821B930B49
:1051F0009093880780938707809185079091860711
:105200008F3F910509F06CF48091890790918A078E
:1052100097FF03C0909581959F4F90938A07809345
:10522000890780918507909186072EE1803092074B
:105230000CF04FC0892F990F990B6AE070E00F9422
:10524000A10685E0689FF001112480918307909169
:105250008407892F990F990B69E170E00F94A106DB
:10526000E60FF11DEC58F84F8081882391F18150B1
:1052700080838091890790918A0797FF03C090955A
:1052800081959F4F90938A078093890744E757E061
:105290009A0160E00CC080818823D9F49F5F319629
:1052A0009530C9F76F5F2B5F3F4F633071F0F901A5
:1052B00090E0F1CF91938F5F8530E1F74B5F5F4FC7
:1052C00087E04338580711F404C093E0FA0180E006
:1052D000F1CF809185079091860781509A430CF415
:1052E00048C0409183075091840720915B0730911B
:1052F0005C07C9010197982F8827990F481759070C
:1053000044F0322F2227330F20503B4E241735070D
:1053100034F48FE198E268EA7FEF0E94B22E8BEFBF
:105320009FEF20915B0730915C07821B930B982FB6
:105330008827990F2091830730918407820F931F4C
:1053400060E470E00F94A106809187079091880730
:10535000680F791F709388076093870777FF03C0F2
:10536000709561957F4F6050724070938A0760938B
:1053700089078091890790918A07892B61F580E0E0
:1053800099E3909386078093850720915B0730917E
:105390005C07C9010596880F991F109283078093B7
:1053A000840780915D078823B1F0C9018097F3E0FD
:1053B000880F991FFA95E1F79093880780938707E4
:1053C00097FF03C0909581959F4F80509240909396
:1053D0008A07809389070E94843CE4E7EE2EE7E089
:1053E000FE2E03E079E0C72E2CC08881882341F08F
:1053F000412F4D5E812F81506A2D2B2D0E945036FA
:105400008881823031F4812F602F4D2D2C2D0E9408
:105410007A368881833031F4812F602F4D2D2C2DE9
:105420000E9477372196175E89E1D80E1138E9F688
:10543000065F9AE0C90E85E090E0E80EF91E0132A1
:1054400051F0A02EAA9467E0B62EB00EE70114E04A
:1054500056E1D52ECACF8091830790918407892F7A
:10546000990F990B6091850770918607672F770FC9
:10547000770B482F4E5F262F2E5F0E94503680916B
:105480005B0790915C07880F991F482F4B5E6CE378
:105490002FE30E9450360E94CB31DF91CF911F91B4
:1054A0000F91FF90EF90DF90CF90BF90AF90089555
:1054B000EF92FF920F931F930E943232882309F4D8
:1054C00079C10E944F3A92B39695969590959170B6
:1054D00080916308891749F08091070A882311F0A9
:1054E000815004C09093630803C088E28093070A48
:1054F0008091440390914303882349F0892F82507F
:1055000080934303882361F41092440309C0892FD8
:105510008E5F809343038E3719F481E080934403B8
:105520000E94AE7F882309F4ACC00E94843C8AE0CC
:105530006BE974E00E946D3C0E94B37F853009F4F2
:1055400057C0863040F4833019F1843088F58130BB
:1055500008F48FC00DC0873009F46AC0873008F4A2
:1055600057C0883009F474C08A3009F082C030C056
:1055700084E16FE874E00E946D3C81E068E248E8F5
:1055800054E00E940C3481E062E345E754E06FC0D0
:1055900084E165E674E00E946D3C81E068E24EE5DE
:1055A00054E00E940C3481E062E34BE454E05FC0BD
:1055B00084E16EE374E00E946D3C81E068E247E3C1
:1055C00054E00E940C3481E062E344E254E04FC0B6
:1055D00084E165E174E00E946D3C81E068E24EE0A8
:1055E00054E00E940C3481E062E34BEF53E03FC093
:1055F00084E16BEE73E00E946D3C81E068E244EE72
:1056000053E00E940C3481E062E341ED53E02FC08F
:1056100084E162EC73E00E946D3C81E068E24BEB58
:1056200053E00E940C3481E062E348EA53E01FC07B
:1056300084E163E973E00E946D3C81E068E24CE83C
:1056400053E00E940C3481E062E349E753E00FC06D
:1056500084E165E673E00E946D3C81E068E24EE51E
:1056600053E00E940C3481E062E34BE453E00E947B
:105670000C344091430360E8641B842F0E9437324E
:1056800030C00E94F02320913503309136034091C1
:10569000370350913803621B730B840B950B6858CA
:1056A00073418040904000F580913903882351F484
:1056B0000E94843C84E166E373E00E946D3C81E0DB
:1056C0008093390380914F0D8350833050F40E94B2
:1056D000F0236093350370933603809337039093E0
:1056E00038030E94CB3166C0109239036091DE18F6
:1056F0007091DF188091E0189091E1182DEC3CEC4E
:105700004CE45DE30F94A0057B018C0160913B02AA
:1057100070913C0280913D0290913E0223E333E37D
:1057200043E75FE30F94A0059B01AC01C801B701FB
:105730000F94E70160933B0270933C0280933D021B
:1057400090933E026091E4187091E5188091E618FC
:105750009091E7182DEC3CEC4CE45DE30F94A00530
:105760007B018C0160913F02709140028091410267
:105770009091420223E333E343E75FE30F94A005F4
:105780009B01AC01C801B7010F94E70160933F0290
:10579000709340028093410290934202E0913B0358
:1057A000F0913C031995E0913F03F091400330974D
:1057B00009F019951F910F91FF90EF9008950E94A5
:1057C000C1380E94CF57882349F5EBEAF4E0949161
:1057D00008C08091C00085FFFCCF9093C600319631
:1057E00094919923B1F7E1EBF4E0949108C0809192
:1057F000C00085FFFCCF9093C60031969491992309
:10580000B1F78091C00085FFFCCF8AE08093C6008D
:105810000E94C25980E060E00E94A4560E94DA55BE
:105820008AE29CE290933C0380933B0388E060E033
:1058300070E00E94C3240E94F023685873418040A6
:1058400090406093350370933603809337039093B1
:1058500038030895FF920F931F93CF93DF9388EA45
:105860009FEF90935C0780935B0740914303642F05
:10587000685F405E862F0E9437320E94843C809190
:105880004303843598F580E066E148EE54E00E94D9
:105890000038C0E0D0E016E107E1FC2E8091430320
:1058A000482F50E0440F551FCE01439684179507AB
:1058B0003CF444514C1B80E0612F202F0E94EF36B6
:1058C0008091430390E0880F991F8C179D0714F077
:1058D0008F1901C080E0612F4FE7202F0E94EF3623
:1058E00021961E5F0E5F1A32C1F609C08150809367
:1058F000430380E066E148EE54E00E9400380E94D5
:10590000CB3180913A038823B9F48091430390E02E
:10591000880F991F20913A0230E0AC01429FC001EC
:10592000439F900D529F900D112464E670E00F94F8
:10593000A10688E00E94C32480914403882329F4AF
:1059400080915D07882309F443C080913A0388233E
:1059500069F480913A029FEF899FC001112464E6A7
:1059600070E00F94A10688E00E94C32410924403C3
:105970001092430380E360E34CE30E94373280914E
:105980005D07882311F00E947238F999FECF80E0FC
:1059900094E092BD81BDF89A80B5853581F460911F
:1059A0007A0A70917B0A80917C0A90917D0A20E0AE
:1059B00030E040E050E00F94C002882319F488ECF6
:1059C00094E402C08FE198E290933C0380933B0300
:1059D000DF91CF911F910F91FF9008950E94843C19
:1059E00083E06CE740E30E94CE3508956F927F928A
:1059F0008F929F92AF92BF92CF92DF92EF92FF92DF
:105A00000F931F93CF93DF934C015A01390180917B
:105A10005D07882309F0CCC080915B0790915C07FB
:105A2000885A9F4F21F410925C0710925B072091D7
:105A30005B0730915C0737FF0EC0862F992787FDE3
:105A40009095880F991F880F991F820F931F90932D
:105A50005C0780935B0780915B0790915C07C62E83
:105A6000DD24C7FCD0949601220F331F220F331F71
:105A70008217930734F0821B930B90935C078093FB
:105A80005B0780915B0790915C0764E070E00F9486
:105A9000A106F62E0E94843C2091530330915403BA
:105AA000E1EFFFEFE21BF30B8F2D90E043E0880F57
:105AB000991F4A95E1F7E80FF91FCF0164E070E004
:105AC0000F94A106620F731F7093540360935303E6
:105AD0001E161F0654F46F5F7F4F7093540360933C
